:020000040000FA
:10000000012883160313880183160313061486142C
:100010000615831603130510851083160313870135
:10002000831603130910891009118316031307306F
:100030009F00831603138830810083120313880105
:100040008501870189018101A801A9017F22EC2195
:10005000DB20E620B621EF20831203130510851064
:10006000C830052305148514FA300523FA3005231A
:10007000FA300523FA30052305108510AA01AB01DB
:10008000AC01AD01AE01AF01B00149210230052341
:10009000AF0A2F08083A031D4E28AF012E18552825
:1000A00083120313861855282E14AE185C28831269
:1000B000031306195C28AE14B00A3008323A031D47
:1000C0006828B0012E1865286E20AE1868287E209A
:1000D0002E080339033A031D45288E28AB0A2B0846
:1000E0000A3A031D0800AB01AA0A2A083D3A031D7B
:1000F00008003C30AA00AB012E140800AD0A2D0800
:100100000A3A031D0800AD01AC0A2C083D3A031D54
:1001100008003C30AC00AD01AE1408002A08F620FF
:100120002B08C1070318C20A4108B3004208B400F3
:100130002C08F6202D08C1070318C20A4108B50093
:100140004208B6003108BB003208BC003308BD00CD
:100150003408BE0010213F08B7004008B80031083D
:10016000BB003208BC003508BD003608BE001021B7
:100170003F08B9004008BA0019214508013A031D9B
:10018000C3282F21A80A4508023A031DC9283C218B
:10019000A90ACB212808053C0319D3282908053CC6
:1001A0000319D52828281922D6283C22DB20A801AB
:1001B000A901EC212828831203130618DB28143028
:1001C00005230618DB28061CE32808000108A50003
:1001D0003D302502031CEE28A500E828080025086C
:1001E000F6204108B1004208B2000800C300C10176
:1001F000C2010A30A3004308C1070318C20AA30BB7
:10020000FB2808003D083B02BF00031C0B293E08E9
:100210003C02C00008003E083C02C000C0030800C9
:100220000221C01F0800BF09C009BF0A0319C00A84
:1002300008003A083802031D242939083702031937
:100240002729031C29292C29031C29292C29C5010C
:1002500008000130C50008000230C5000800831204
:1002600003130330A3000514FA3005230510FA30F8
:100270000523A30B33290800831203130330A300C3
:100280008514FA3005238510FA300523A30B402985
:1002900008002A302F192C3084002F080339A300BE
:1002A000AE132308003A03195E292308013A031903
:1002B00060292308023A031964296929A4016C29D9
:1002C00000087C21A4006C2900088721A400AE1737
:1002D0006C29840A0008A40024089021AE1B8038F1
:1002E000FF3AC400831203132F08073989008312D1
:1002F0000313440887000800C100C3010A3041020B
:10030000031C8529C100C30A7E2943080800C100D7
:100310000A304102031C8E29C100882941080800C7
:10032000C3004308003A03193F344308013A031954
:1003300006344308023A03195B344308033A0319AD
:100340004F344308043A031966344308053A031945
:100350006D344308063A03197D344308073A0319FC
:1003600007344308083A03197F346F342508A7007F
:10037000A6010A302702031CC029A700A60AB92932
:100380008030B1225F222608303ED8222708303E36
:10039000D82270220800C030B1225030D82231302B
:1003A000D8223A30D8222808303ED8222030D8220D
:1003B0005030D8223230D8223A30D8222908303E64
:1003C000D8222030D8222030D8222030D822203005
:1003D000D8222030D82208008030B1225030D822D4
:1003E0007230D8226530D8227330D8227330D822A8
:1003F0002030D8224D30D8226130D8227330D82214
:100400007430D8226530D8227230D822C030B12260
:100410007430D8226F30D8222030D8225330D822DE
:100420007430D8226130D8227230D8227430D82269
:1004300008000130B122023005238030B122503053
:10044000D8226C30D8226130D8227930D822653059
:10045000D8227230D8222030D8223130D822C03071
:10046000B1225730D8226930D8226E30D82273306A
:10047000D8222130D82208000130B12202300523D1
:100480008030B1225030D8226C30D8226130D8224E
:100490007930D8226530D8227230D8222030D82244
:1004A0003230D822C030B1225730D8226930D82219
:1004B0006E30D8227330D8222130D8220800543030
:1004C000D8226130D8227230D8226730D8226530E5
:1004D000D8227430D8223A30D8222030D8220800CE
:1004E0002030D8227330D8226530D8226330D82209
:1004F0002030D8222030D8222030D82208000F30D7
:10050000052330309C220530052330309C220130F9
:10051000FF2230309C220130FF2220309C2201300B
:10052000FF222830B1220C30B1220130B12202303A
:1005300005230630B122080083120313A40008101B
:100540000811241A08158811A41A88150812241BEA
:1005500008168812A41B8816881400000000881052
:10056000080083120313A40008100811241A0815A8
:100570008811A41A88150812241B08168812A41BB7
:100580008816881400000000881008112418081527
:100590008811A41888150812241908168812A4199D
:1005A000881688140000000088100230FF2208001E
:1005B00083120313A40008140811241A08158811C3
:1005C000A41A88150812241B08168812A41B881662
:1005D00088140000000088100811241808158811DC
:1005E000A41888150812241908168812A419881648
:1005F00088140000000088100230FF22080032300A
:10060000A0000000A00B012B0800A200FA30A100FE
:0C0610000000A10B082BA20B062B080019
:02400E00393F38
:00000001FF
